:040000002FC0FECF40
:10000400FDCFFCCFFBCFFACFF9CFF8CFF7CFF6CFA8
:10001400F5CFF4CFF3CFF2CFF1CFF0CFEFCFEECFD8
:10002400EDCF1027E80364000A000100001000016E
:10003400100001004C44525F313D25690D004C44D1
:10004400525F323D25690D004C44525F333D2569B2
:100054000D004C44525F343D25690D00F894EE27A1
:10006400ECBBF1E0FBBFEBBFE5BF8DE0A2E0BB273B
:10007400ED938A95E9F780E094E0A0E6ED9301978B
:10008400E9F7EFE5EDBFE4E0EEBFC0E6D1E048C03C
:10009400AA93E881E064E7B98BE18A95F1F7369A8F
:1000A400349BFECF349AE4B1F5B15BC012D2C09A4E
:1000B400C19812D22F010DD2C098C19A0DD23F011E
:1000C40008D2C098C198C29AC398A0E0E1DF4F015A
:1000D40000D2C098C198C298C39AA0E0D9DF5F014A
:1000E400FFD1E8E3F0E001D2F20102D2E2E4F0E071
:1000F400FCD1F301FDD1ECE4F0E0F7D1F401F8D147
:10010400E6E5F0E0F2D1F50153D25FD284E08AD182
:100114002896A0E6B1E027D0F4D1F3D1F2D1089526
:10012400EFE0E7BBE0E0E8BBE9BFEBB9E8E1EAB93F
:10013400E6E8E0BDE0E0E0BDE3E3E9B9E0E8E8B922
:10014400E0E4E7B9E5E8E6B9E0E0E0BFAFDFA8EE58
:10015400B3E01CD2FBCFFFCFAA935D9BFECFE88117
:10016400ECB921960895D4D11A93A981BA81ED915D
:10017400A983BA831E2FE03019F0A12FEDDFF5CF4C
:10018400AAE0EADF188106C0C3D1AA81E5DFA8810D
:10019400B981C1D123960895BBD120D2C2D1129680
:1001A4000CD23097F1F0BDD1BFD18F01309761F0FF
:1001B4000230E0E01E0770F0F80131978F01AA8148
:1001C400BB811496ED93FC93ACD11296A4D13197D4
:1001D400AC81A083A6D1F1D1FF2312F0A2D19BD18F
:1001E40005C09FD1EFEFFFEFED93FC93FED1259671
:1001F40008958ED12697EED110E0AC85BD85E0E060
:10020400F0E0ED93FC93EA89FB893196EA8BFB8B52
:100214003197E4912E2FE03009F4FEC0E12FE03055
:1002240031F4253211F411E001C081D1F4C0E13080
:10023400A1F4253211F47BD1EDC012E040E000E0DE
:100244002D3211F401E0E7C02B3211F44BE2E3C08C
:10025400203211F440E2DFC002C0E23039F450E051
:1002640013E0203311F40068D6C003C0E33009F072
:10027400D2C0203310F02A3308F007C0AAE05A9FF6
:10028400502DE22FE0535E0FC6C0E22FE33639F45F
:1002940055D157D153D1A481AA9357D1BBC0E337C9
:1002A40031F459D15AD15CD1FDD01E2F08C0E037AA
:1002B40051F451D152D154D100D11E2F08600260A3
:1002C4000F7730E02EC0E43611F0E93611F4046003
:1002D40002C0E53729F4E6E2F0E047D115E00BC0AF
:1002E400E83511F4086003C0E83709F093C0E0E38F
:1002F400F0E03BD114E002FF11C02DD12ED138D152
:10030400AB85AA232AF4EA85FB854ED131D14DE28F
:10031400403011F01F5F01C00B7F03C01CD11DD101
:1003240027D100FD10C0151770F407FF08C002FFA5
:1003340004C00B7F242F115001C020E301C020E230
:10034400F6D05150F0CF312F01FF15C0303091F06D
:1003540003FF05C0EE81FF81259107D105C0AE8161
:10036400BF812D91AE83BF83E2D0503009F051504C
:100374003150ECCF46C020E3EE81FF8122D1E887E3
:10038400F987EE81FF813296F0D0E885F985AA8558
:10039400BB85AE17BF0748F02F5FA885B985EA85EE
:1003A400FB85EA1BFB0BE4D0F0CF2A3328F003FFD4
:1003B40002C0295F01C0295D04FD19C0213320F466
:1003C400A885B985119709F409C0531710F000FFE7
:1003D40001C011C020E207FF0AC020E3006102FF50
:1003E40006C00B7F4A93B1D0503009F051509FD0D2
:1003F400503009F051503150A885B985129708F052
:10040400BACF00FF07C0503029F05150E0E2EA9320
:100414009CD0F9CF10E0F7CEAC85BD85CED0E1D02D
:1004240064960895FF92F82E2697D6D0A4D03097DC
:1004340019F4EFEFFFEF18C0DE011696B1D08D016D
:100444009AD093D0E0E0E887E987DE011A9698D045
:10045400EEECF0E04AD0DE011A96CBDE9F01AE81CD
:10046400BF81E0E0EC93F901BED02A96FF90089595
:10047400FF92F82E2697B2D0DE01149691D08D010A
:10048400E0E0EC83ED83EE83EF83DE01189678D011
:10049400E6ECF0E02AD0DE011896ABDEA6D0289672
:1004A400FF90089535D0A991B991EE27FF276D915A
:1004B400662311F03196FBCF08952AD0AA27BB27D3
:1004C400E991F9910590002011F01196FBCFFD01FF
:1004D4000895AAE0B0E05AC0C298C398A0E0D8CD6D
:1004E400E0E6F1E0FA93EA930895FA93EA93089523
:1004F4005FD06BD084E096DF2896A0E6B1E033DECF
:10050400EFCFE0E4F0E0F1DF80E0B2DF229608957F
:10051400BA93AA930895ED91FD913196FE93EE93CB
:100524000895AA81BB810895149647D008952A930B
:10053400AD85BE85EF85F88909950895E889F9891F
:1005440008953497E88BF98B0895AD85BE85EF85C2
:10055400F88909950895F2DFF4CFA889B989E4CF21
:10056400EE83FF83AE81BF810895EE83FF830895F8
:10057400EA87FB870895DE011C9612D01ED00895E9
:100584000FD01BD0B2DF1A930A930895109639F056
:1005940080ED97E00197F1F7A8951197C9F70895B1
:1005A4000024AF0DB01D0895F195E195F040089534
:1005B4006F2F660F660B762F0895ED91FC911197BE
:1005C40008950590F491E02D08957A936A93FA932F
:1005D400EA9308955A934A933A932A931A930A935F
:1005E40008955D814C813B812A8119810881089598
:00000001FF
